0RDEBLIQC900000    0056944309202101281312                                                                                                                                                                                                                                                                  *
101771101220005 0056944309450995020291962100002011270121      000000000030000  000000012740169000000012740169 0812707818         000                             00                             93090000100000200000000000000000280121      04                                                             *
101771101220005 0056944309430496001712954500002012270121      000000000040000  000000010360267000000010360267 0219903688         000                             00                             93090000100000300000000000000000280121      02                                                             *
101771101220005 0056944309454073800280837000002022270121      000000000020000  000000023839923000000023839923 0920758645         000                             00                             93090000100000400000000000000000280121      01                                                             *
101771101220005 0056944309450995800900823300002032270121      000000000030000  000000007803138000000007803138 0811913898         000                             00                             93090000100000500000000000000000280121      02                                                             *
101771101220005 0056944309469701000061462700002034270121      000000000030000  000000003863466000000003863466 0645877267         000                             00                             93090000100000600000000000000000280121      02                                                             *
101771101220005 0056944309455599800119040000002035270121      000000000030000  000000012661383000000012661383 0756702315         000                             00                             93090000100000700000000000000000280121      04                                                             *
101771101220005 0056944309454850300046908400002036270121      000000000025000  000000005957618000000005957618 0070810565         000                             00                             93090000100000800000000000000000280121      02                                                             *
101771101220005 0056944309450994000310413500002037270121      000000000030000  000000008617852000000008617852 0074969324         000                             00                             93090000100000904753930000391549280121      02                                                             *
101771101220005 0056944309405071013392237200002039270121      000000000030000  000000012286124000000012286124 0009389588         000                             00                             93090000100001000000000000000000280121      01                                                             *
101771101220005 0056944309454850000997125000020311270121      000000000080000  000000004935368000000004935368 0368565962         000                             00                             93090000100001100000000000000000280121      01                                                             *
101771101220005 0056944309454451200054884100020313270121      000000000060000  000000013483391000000013483391 0876228126         000                             00                             93090000100001200000000000000000280121      02                                                             *
101771101220005 0056944309469701000089137300020315270121      000000000100000  000000017257020000000017257020 0800482000         000                             00                             93090000100001300000000000000000280121      02                                                             *
101771101220005 0056944309454832001297550700020316270121      000000000030000  000000023064384000000023064384 0325434441         000                             00                             93090000100001400000000000000000280121      02                                                             *
101771101220005 0056944309450979020498214800002041270121      000000000030000  000000017458335000000017458335 0808324715         000                             00                             93090000100001500000000000000000280121      02                                                             *
101771101220005 0056944309454832002191122000002044270121      000000000025000  000000016251459000000016251459 0032290123         000                             00                             93090000100001600000000000000000280121      04                                                             *
101771101220005 0056944309454657104049883700002045270121      000000000030000  000000005416337000000005416337 0046304573         000                             00                             93090000100001700000000000000000280121      02                                                             *
101771101220005 0056944309454640005978707200002048270121      000000000040000  000000029853155000000029853155 0777394263         000                             00                             93090000100001800000000000000000280121      02                                                             *
101771101220005 0056944309450844800008972200002049270121      000000000030000  000000012618190000000012618190 0102741081         000                             00                             93090000100001900000000000000000280121      02                                                             *
101771101220005 0056944309455599000164624200020410270121      000000000025000  000000006248045000000006248045 0428828141         000                             00                             93090000100002004555998001525316280121      01                                                             *
101771101220005 0056944309459354000401352000020411270121      000000000020000  000000010704317000000010704317 0195484292         000                             00                             93090000100002100000000000000000280121      01                                                             *
101771101220005 0056944309402918856519610400020412270121      000000000030000  000000020562387000000020562387 0876524415         199TARJETA NO OPERATIVA POR LA E00                             93090000100002200000000000000000280121      00                                                             *
101771101220005 0056944309450832800182406300020413270121      000000000030000  000000026212690000000026212690 0485300462         000                             00                             93090000100002300000000000000000280121      01                                                             *
101771101220005 0056944309469771000278597400020416270121      000000000040000  000000012135634000000012135634 0972438423         000                             00                             93090000100002400000000000000000280121      02                                                             *
101771101220005 0056944309450843001088120700020417270121      000000000025000  000000010332100000000010332100 0368428182         000                             00                             93090000100002500000000000000000280121      04                                                             *
101771101220005 0056944309402918497841163600020418270121      000000000050000  000000007601823000000007601823 0653215862         000                             00                             93090000100002600000000000000000280121      03                                                             *
101771101220005 0056944309402918880567063700020419270121      000000000030000  000000006072962000000006072962 0260368094         000                             00                             93090000100002700000000000000000280121      03                                                             *
101771101220005 0056944309454832001033391500020421270121      000000000030000  000000004952730000000004952730 0533850286         000                             00                             93090000100002804548323003077937280121      01                                                             *
101771101220005 0056944309454850000148249600020426270121      000000000030000  000000005312554000000005312554 0035792480         000                             00                             93090000100002900000000000000000280121      04                                                             *
101771101220005 0056944309433830000622046000020428270121      000000000050000  000000016458730000000016458730 0003955901         000                             00                             93090000100003000000000000000000280121      02                                                             *
101771101220005 0056944309455599001938324200020429270121      000000000030000  000000001736239000000001736239 0622555630         000                             00                             93090000100003100000000000000000280121      03                                                             *
101771101220005 0056944309454832622995069600020432270121      000000000040000  000000004599749000000004599749 0024430515         000                             00                             93090000100003200000000000000000280121      01                                                             *
101771101220005 0056944309470455000280551800020433270121      000000000030000  000000010259483000000010259483 0057890553         000                             00                             93090000100003300000000000000000280121      01                                                             *
101771101220005 0056944309430496003336180900020434270121      000000000050000  000000010995914000000010995914 0317432693         000                             00                             93090000100003400000000000000000280121      01                                                             *
101771101220005 0056944309402918368472002500020435270121      000000000030000  000000006691502000000006691502 0736716930         000                             00                             93090000100003500000000000000000280121      03                                                             *
101771101220005 0056944309459354000290245000020436270121      000000000030000  000000026420289000000026420289 0794502865         000                             00                             93090000100003600000000000000000280121      02                                                             *
101771101220005 0056944309466057009929716500020437270121      000000000045000  000000004580985000000004580985 0597592692         000                             00                             93090000100003700000000000000000280121      01                                                             *
101771101220005 0056944309433830000496568600020438270121      000000000030000  000000008529202000000008529202 0372798059         000                             00                             93090000100003800000000000000000280121      02                                                             *
101771101220005 0056944309450832000472796300020439270121      000000000030000  000000003056803000000003056803 0005424267         000                             00                             93090000100003900000000000000000280121      02                                                             *
101771101220005 0056944309402918012297442000020440270121      000000000050000  000000005793466000000005793466 0192007519         000                             00                             93090000100004000000000000000000280121      03                                                             *
101771101220005 0056944309454640001662935900020441270121      000000000030000  000000006697705000000006697705 0216463316         000                             00                             93090000100004104546408005770563280121      01                                                             *
101771101220005 0056944309454832001892406100002051270121      000000000030000  000000004953170000000004953170 0792449803         000                             00                             93090000100004200000000000000000280121      03                                                             *
101771101220005 0056944309405071015179004000002052270121      000000000035000  000000003978989000000003978989 0812094901         000                             00                             93090000100004304660570106172336280121      02                                                             *
101771101220005 0056944309468531000038653900002053270121      000000000020000  000000011304657000000011304657 0154055514         000                             00                             93090000100004400000000000000000280121      01                                                             *
101771101220005 0056944309416416000113144600002057270121      000000000030000  000000006300428000000006300428 0716005375         000                             00                             93090000100004500000000000000000280121      01                                                             *
101771101220005 0056944309454850715985044000002058270121      000000000030000  000000031275456000000031275456 0025977668         000                             00                             93090000100004600000000000000000280121      03                                                             *
101771101220005 0056944309469771000183848500002059270121      000000000020000  000000010780327000000010780327 0846998574         000                             00                             93090000100004700000000000000000280121      01                                                             *
101771101220005 0056944309482469800018112000020510270121      000000000030000  000000005932311000000005932311 0118960302         000                             00                             93090000100004800000000000000000280121      02                                                             *
101771101220005 0056944309469724000253703500020511270121      000000000050000  000000016065889000000016065889 0558745895         000                             00                             93090000100004900000000000000000280121      02                                                             *
101771101220005 0056944309456583000399323400020512270121      000000000060000  000000008782809000000008782809 0782844070         000                             00                             93090000100005000000000000000000280121      01                                                             *
101771101220005 0056944309454075800512083900020513270121      000000000030000  000000011036342000000011036342 0029797778         000                             00                             93090000100005100000000000000000280121      04                                                             *
101771101220005 0056944309402918872541997400020516270121      000000000030000  000000003552188000000003552188 0618944789         000                             00                             93090000100005200000000000000000280121      03                                                             *
101771101220005 0056944309466057005497241400020517270121      000000000050000  000000001145024000000001145024 0155398616         000                             00                             93090000100005300000000000000000280121      02                                                             *
101771101220005 0056944309456583000506158400020518270121      000000000030000  000000011029464000000011029464 0221018132         000                             00                             93090000100005400000000000000000280121      01                                                             *
101771101220005 0056944309450979021710323700020519270121      000000000030000  000000004154003000000004154003 0811853284         154TARJETA DADA DE BAJA         00                             93090000100005500000000000000000280121      00                                                             *
101771101220005 0056944309450979009885501200020520270121      000000000020000  000000012253568000000012253568 0436441705         000                             00                             93090000100005600000000000000000280121      02                                                             *
101771101220005 0056944309402918508303341300020521270121      000000000030000  000000004641516000000004641516 0703319379         000                             00                             93090000100005700000000000000000280121      03                                                             *
101771101220005 0056944309456584000002555900020523270121      000000000030000  000000004273506000000004273506 0526866685         155TARJETA NO OPERATIVA         00                             93090000100005800000000000000000280121      00                                                             *
101771101220005 0056944309405071010568159200020525270121      000000000040000  000000021374633000000021374633 0067272602         000                             00                             93090000100005900000000000000000280121      01                                                             *
101771101220005 0056944309469701800009473200020526270121      000000000050000  000000006234296000000006234296 0002764319         000                             00                             93090000100006000000000000000000280121      02                                                             *
101771101220005 0056944309455197000429869000020527270121      000000000020000  000000006374460000000006374460 0522625794         000                             00                             93090000100006100000000000000000280121      02                                                             *
101771101220005 0056944309450815200374867800020528270121      000000000040000  000000006267734000000006267734 0067041893         000                             00                             93090000100006200000000000000000280121      01                                                             *
101771101220005 0056944309416417000587976700020529270121      000000000050000  000000008507308000000008507308 0087947043         000                             00                             93090000100006300000000000000000280121      01                                                             *
101771101220005 0056944309469771800033808400020530270121      000000000040000  000000002923171000000002923171 0415084743         000                             00                             93090000100006400000000000000000280121      03                                                             *
101771101220005 0056944309479375000920561100020531270121      000000000030000  000000008058150000000008058150 0968803165         000                             00                             93090000100006500000000000000000280121      03                                                             *
101771101220005 0056944309466057010149858700020534270121      000000000040000  000000028324579000000028324579 0553536249         000                             00                             93090000100006600000000000000000280121      01                                                             *
101771101220005 0056944309454846300078216000020537270121      000000000030000  000000004420472000000004420472 0364780653         000                             00                             93090000100006700000000000000000280121      01                                                             *
101771101220005 0056944309433831000777967900020538270121      000000000030000  000000006474076000000006474076 0167677965         000                             00                             93090000100006800000000000000000280121      01                                                             *
101771101220005 0056944309402918562003485800020539270121      000000000020000  000000002035339000000002035339 0472999590         000                             00                             93090000100006904029180939773775280121      03                                                             *
101771101220005 0056944309402918536520210800020540270121      000000000020000  000000005811225000000005811225 0096674705         000                             00                             93090000100007004029180715471032280121      03                                                             *
101771101220005 0056944309466057008771848700020541270121      000000000030000  000000010542228000000010542228 0144503034         000                             00                             93090000100007100000000000000000280121      02                                                             *
101771101220005 0056944309450843002211267400020542270121      000000000020000  000000004743998000000004743998 0529569376         000                             00                             93090000100007200000000000000000280121      02                                                             *
101771101220005 0056944309405071801169755200002062270121      000000000030000  000000020038308000000020038308 0916513605         000                             00                             93090000100007300000000000000000280121      01                                                             *
101771101220005 0056944309402918883379709700002063270121      000000000020000  000000011109734000000011109734 0387492157         000                             00                             93090000100007404029182726972289280121      03                                                             *
101771101220005 0056944309402918952206323900002064270121      000000000020000  000000004625805000000004625805 0266843638         000                             00                             93090000100007500000000000000000280121      03                                                             *
101771101220005 0056944309405643000343714600002066270121      000000000020000  000000004978022000000004978022 0223428948         000                             00                             93090000100007600000000000000000280121      01                                                             *
101771101220005 0056944309405071014677471100002067270121      000000000030000  000000012618948000000012618948 0411081571         000                             00                             93090000100007700000000000000000280121      01                                                             *
101771101220005 0056944309433833000247962000002068270121      000000000050000  000000001360356000000001360356 0581554468         000                             00                             93090000100007800000000000000000280121      01                                                             *
101771101220005 0056944309454850000753640200020610270121      000000000030000  000000017196283000000017196283 0150626220         000                             00                             93090000100007900000000000000000280121      02                                                             *
101771101220005 0056944309454657103237469900020611270121      000000000030000  000000006496170000000006496170 0698000968         000                             00                             93090000100008000000000000000000280121      02                                                             *
101771101220005 0056944309454846000569029900020613270121      000000000050000  000000025491289000000025491289 0106186442         000                             00                             93090000100008100000000000000000280121      02                                                             *
101771101220005 0056944309430496800185484600020614270121      000000000030000  000000006719829000000006719829 0740045916         000                             00                             93090000100008204420140000133494280121      02                                                             *
101771101220005 0056944309455599001475035300020615270121      000000000030000  000000014716969000000014716969 0669298989         000                             00                             93090000100008300000000000000000280121      02                                                             *
101771101220005 0056944309402918901184388500020616270121      000000000030000  000000023778447000000023778447 0878469514         000                             00                             93090000100008400000000000000000280121      03                                                             *
101771101220005 0056944309454850000089059000020618270121      000000000030000  000000006026966000000006026966 0028032854         000                             00                             93090000100008500000000000000000280121      04                                                             *
101771101220005 0056944309450994800060151600020619270121      000000000030000  000000003296375000000003296375 0020481807         000                             00                             93090000100008600000000000000000280121      01                                                             *
101771101220005 0056944309402918946064042800020620270121      000000000030000  000000022462995000000022462995 0686250386         000                             00                             93090000100008704029185637487032280121      03                                                             *
101771101220005 0056944309450995016146365200020621270121      000000000030000  000000018534059000000018534059 0607853498         000                             00                             93090000100008800000000000000000280121      01                                                             *
101771101220005 0056944309402918866730785600020622270121      000000000030000  000000006049832000000006049832 0544441749         000                             00                             93090000100008900000000000000000280121      03                                                             *
101771101220005 0056944309466057004648755400020624270121      000000000100000  000000012646823000000012646823 0017879525         000                             00                             93090000100009000000000000000000280121      01                                                             *
101771101220005 0056944309450832800097295400020625270121      000000000030000  000000005689859000000005689859 0388840276         000                             00                             93090000100009100000000000000000280121      02                                                             *
101771101220005 0056944309472039000004738700020626270121      000000000030000  000000003951137000000003951137 0291140030         000                             00                             93090000100009200000000000000000280121      01                                                             *
101771101220005 0056944309416425000020510900020627270121      000000000030000  000000028870297000000028870297 0880773939         000                             00                             93090000100009300000000000000000280121      02                                                             *
101771101220005 0056944309479376000037279900020628270121      000000000030000  000000012517263000000012517263 0383557234         000                             00                             93090000100009404239850000084841280121      02                                                             *
101771101220005 0056944309433831000413666700020630270121      000000000020000  000000003632180000000003632180 0825851690         000                             00                             93090000100009500000000000000000280121      01                                                             *
101771101220005 0056944309479375000102456400020631270121      000000000020000  000000011176350000000011176350 0101511993         000                             00                             93090000100009600000000000000000280121      02                                                             *
101771101220005 0056944309402918123465666500020632270121      000000000035000  000000016767872000000016767872 0790305024         000                             00                             93090000100009700000000000000000280121      03                                                             *
101771101220005 0056944309402918225201310200020633270121      000000000020000  000000004159616000000004159616 0119163229         000                             00                             93090000100009800000000000000000280121      03                                                             *
101771101220005 0056944309454642002471737600020634270121      000000000030000  000000004886528000000004886528 0011623081         191BAJA DE DEB. AUT. SOLICITADA 00                             93090000100009900000000000000000280121      00                                                             *
101771101220005 0056944309455197001060056600020636270121      000000000020000  000000005670965000000005670965 0390091750         000                             00                             93090000100010000000000000000000280121      04                                                             *
101771101230005 0056944309498434000133613200020637270121      000000000030000  000000003548274000000003548274 0673969031         000                             00                             93090010100010200000000000000000280121      02                                                             *
101771101230005 0056944309402918633172063700020638270121      000000000030000  000000007242638000000007242638 0351447857         000                             00                             93090010100010300000000000000000280121      03                                                             *
101771101230005 0056944309450979017583315500020639270121      000000000040000  000000004924057000000004924057 0809092622         000                             00                             93090010100010400000000000000000280121      03                                                             *
101771101230005 0056944309454073002610261700020640270121      000000000030000  000000003074154000000003074154 0889840249         000                             00                             93090010100010500000000000000000280121      01                                                             *
101771101230005 0056944309402918130302629500020641270121      000000000020000  000000000876684000000000876684 0128123908         000                             00                             93090010100010600000000000000000280121      03                                                             *
101771101230005 0056944309433810800004290900020642270121      000000000100000  000000010463969000000010463969 0718898117         000                             00                             93090010100010700000000000000000280121      01                                                             *
101771101230005 0056944309402918522725596300020643270121      000000000050000  000000013176212000000013176212 0217890409         000                             00                             93090010100010800000000000000000280121      03                                                             *
101771101230005 0056944309402918860906281700020645270121      000000000030000  000000021626105000000021626105 0450811214         000                             00                             93090010100010900000000000000000280121      03                                                             *
101771101230005 0056944309498435000333521400020646270121      000000000030000  000000010028443000000010028443 0822843551         000                             00                             93090010100011000000000000000000280121      02                                                             *
101771101230005 0056944309402918154669591400020648270121      000000000030000  000000010570897000000010570897 0266847357         000                             00                             93090010100011100000000000000000280121      03                                                             *
101771101230005 0056944309450995021640227500020649270121      000000000025000  000000004682572000000004682572 0387710307         000                             00                             93090010100011200000000000000000280121      01                                                             *
101771101230005 0056944309400104000419905200020650270121      000000000030000  000000013998620000000013998620 0461682762         000                             00                             93090010100011300000000000000000280121      02                                                             *
101771101230005 0056944309479375000699950500020651270121      000000000020000  000000002800228000000002800228 0094039430         000                             00                             93090010100011400000000000000000280121      01                                                             *
101771101230005 0056944309489321800009488800020652270121      000000000020000  000000008704551000000008704551 0759155833         000                             00                             93090010100011500000000000000000280121      01                                                             *
101771101230005 0056944309454832000373699100020653270121      000000000050000  000000004429463000000004429463 0101380887         000                             00                             93090010100011600000000000000000280121      02                                                             *
101771101230005 0056944309455198000434617500020654270121      000000000020000  000000012547671000000012547671 0893592316         000                             00                             93090010100011700000000000000000280121      02                                                             *
101771101230005 0056944309402918932451764800020655270121      000000000050000  000000012395973000000012395973 0465657852         000                             00                             93090010100011804029188237554342280121      03                                                             *
101771101230005 0056944309405071012888749900020656270121      000000000020000  000000007763724000000007763724 0813459114         000                             00                             93090010100011900000000000000000280121      04                                                             *
101771101230005 0056944309498434800006721000020657270121      000000000020000  000000012959344000000012959344 0830364884         000                             00                             93090010100012000000000000000000280121      02                                                             *
101771101230005 0056944309433830800080273800020658270121      000000000020000  000000006074089000000006074089 0138358071         000                             00                             93090010100012100000000000000000280121      01                                                             *
101771101230005 0056944309450843001795351200020659270121      000000000020000  000000003782689000000003782689 0493113906         000                             00                             93090010100012200000000000000000280121      02                                                             *
101771101230005 0056944309475393000032535600002071270121      000000000030000  000000006695539000000006695539 0230676480         000                             00                             93090010100012304753938000033821280121      02                                                             *
101771101230005 0056944309450832000630052000002072270121      000000000035000  000000007815971000000007815971 0252392179         000                             00                             93090010100012400000000000000000280121      02                                                             *
101771101230005 0056944309454832300168144100002073270121      000000000030000  000000005656882000000005656882 0128753842         000                             00                             93090010100012500000000000000000280121      02                                                             *
101771101230005 0056944309456513200000780700002074270121      000000000030000  000000004426698000000004426698 0083271661         000                             00                             93090010100012600000000000000000280121      01                                                             *
101771101230005 0056944309454850000317959500002075270121      000000000030000  000000004695508000000004695508 0025647251         000                             00                             93090010100012700000000000000000280121      03                                                             *
101771101230005 0056944309454075004170491600002076270121      000000000030000  000000029977462000000029977462 0717806939         000                             00                             93090010100012804540730042473067280121      01                                                             *
101771101230005 0056944309450750200031828200002077270121      000000000030000  000000007687530000000007687530 0838644243         000                             00                             93090010100012900000000000000000280121      02                                                             *
101771101230005 0056944309454657104132934600002078270121      000000000030000  000000027818244000000027818244 0168675432         000                             00                             93090010100013000000000000000000280121      02                                                             *
101771101230005 0056944309450994000296067700002079270121      000000000030000  000000014033969000000014033969 0328466805         000                             00                             93090010100013100000000000000000280121      02                                                             *
101771101230005 0056944309454832300293431000020710270121      000000000030000  000000008311098000000008311098 0390741686         000                             00                             93090010100013200000000000000000280121      01                                                             *
101771101230005 0056944309402918238391841900020711270121      000000000030000  000000020100875000000020100875 0941825171         000                             00                             93090010100013300000000000000000280121      03                                                             *
101771101230005 0056944309459354800041141600020712270121      000000000060000  000000026280834000000026280834 0778277835         000                             00                             93090010100013400000000000000000280121      01                                                             *
101771101230005 0056944309470455800044411500020713270121      000000000020000  000000093201891000000093201891 0279008411         000                             00                             93090010100013500000000000000000280121      01                                                             *
101771101230005 0056944309402918200817797900020714270121      000000000040000  000000013002051000000013002051 0116165013         000                             00                             93090010100013600000000000000000280121      03                                                             *
101771101230005 0056944309454073001684435000020715270121      000000000020000  000000019028128000000019028128 0757056381         000                             00                             93090010100013700000000000000000280121      01                                                             *
101771101230005 0056944309469771800003972400020716270121      000000000020000  000000003968006000000003968006 0100314364         000                             00                             93090010100013800000000000000000280121      03                                                             *
101771101230005 0056944309454657102695077700020717270121      000000000020000  000000006175904000000006175904 0340904512         000                             00                             93090010100013900000000000000000280121      01                                                             *
101771101230005 0056944309402918299396379700020718270121      000000000050000  000000007082853000000007082853 0099776361         000                             00                             93090010100014004029184527215868280121      03                                                             *
101771101230005 0056944309402918305383937200020720270121      000000000030000  000000010984747000000010984747 0097362720         000                             00                             93090010100014100000000000000000280121      03                                                             *
101771101230005 0056944309469724800019705800020721270121      000000000020000  000000004696797000000004696797 0540822421         000                             00                             93090010100014200000000000000000280121      02                                                             *
101771101230005 0056944309450843002157736400020722270121      000000000020000  000000001971112000000001971112 0520377895         000                             00                             93090010100014300000000000000000280121      03                                                             *
101771101230005 0056944309450843003759176300020723270121      000000000020000  000000005319112000000005319112 0569653260         000                             00                             93090010100014400000000000000000280121      02                                                             *
101771101230005 0056944309450843800275788900020724270121      000000000020000  000000005206006000000005206006 0179335804         000                             00                             93090010100014500000000000000000280121      02                                                             *
101771101230005 0056944309450843003384904100020725270121      000000000020000  000000012841520000000012841520 0892453746         000                             00                             93090010100014604508438003384097280121      02                                                             *
101771101230005 0056944309433830000805741500002082270121      000000000030000  000000003844320000000003844320 0886879570         000                             00                             93090010100014700000000000000000280121      01                                                             *
101771101230005 0056944309469700000199319500002083270121      000000000030000  000000006891919000000006891919 0094002153         000                             00                             93090010100014800000000000000000280121      01                                                             *
101771101230005 0056944309450994000243385700002084270121      000000000045000  000000008115278000000008115278 0140471612         000                             00                             93090010100014900000000000000000280121      01                                                             *
101771101230005 0056944309489321000047812000002085270121      000000000100000  000000010468527000000010468527 0506052529         000                             00                             93090010100015000000000000000000280121      02                                                             *
101771101230005 0056944309450843000497235000002087270121      000000000020000  000000004154173000000004154173 0240702610         000                             00                             93090010100015100000000000000000280121      02                                                             *
101771101230005 0056944309402918030282012000002088270121      000000000030000  000000011808078000000011808078 0602875354         000                             00                             93090010100015200000000000000000280121      03                                                             *
101771101230005 0056944309450843003727703300002089270121      000000000030000  000000010993241000000010993241 0966976146         000                             00                             93090010100015300000000000000000280121      04                                                             *
101771101230005 0056944309454659091329552600020810270121      000000000030000  000000026405577000000026405577 0322136128         000                             00                             93090010100015400000000000000000280121      01                                                             *
101771101230005 0056944309405071017053230800020811270121      000000000030000  000000011772700000000011772700 0222275286         000                             00                             93090010100015500000000000000000280121      01                                                             *
101771101230005 0056944309479375000779353500020812270121      000000000030000  000000010141679000000010141679 0346391729         000                             00                             93090010100015600000000000000000280121      02                                                             *
101771101230005 0056944309402918258580848300020814270121      000000000030000  000000006893827000000006893827 0877395960         000                             00                             93090010100015700000000000000000280121      03                                                             *
101771101230005 0056944309466057009717318600020815270121      000000000200000  000000025224343000000025224343 0811249043         000                             00                             93090010100015800000000000000000280121      01                                                             *
101771101230005 0056944309459354800042385800020816270121      000000000030000  000000017456870000000017456870 0828632915         000                             00                             93090010100015900000000000000000280121      01                                                             *
101771101230005 0056944309454846000456743100020817270121      000000000030000  000000005168588000000005168588 0828380470         000                             00                             93090010100016000000000000000000280121      03                                                             *
101771101230005 0056944309466057011685939300020821270121      000000000030000  000000007648390000000007648390 0811305532         000                             00                             93090010100016104660570118083968280121      04                                                             *
101771101230005 0056944309433833000109984100020822270121      000000000030000  000000004306444000000004306444 0337855254         000                             00                             93090010100016200000000000000000280121      02                                                             *
101771101230005 0056944309466057011557841600020825270121      000000000045000  000000010897933000000010897933 0949242068         000                             00                             93090010100016300000000000000000280121      01                                                             *
101771101230005 0056944309454659093065178400020826270121      000000000030000  000000022226026000000022226026 0919875490         000                             00                             93090010100016400000000000000000280121      02                                                             *
101771101230005 0056944309402918482150301900020827270121      000000000030000  000000018379792000000018379792 0769235541         000                             00                             93090010100016500000000000000000280121      03                                                             *
101771101230005 0056944309454148000692304100020828270121      000000000080000  000000016603365000000016603365 0987714602         000                             00                             93090010100016600000000000000000280121      01                                                             *
101771101230005 0056944309469700000082809500020829270121      000000000030000  000000007323270000000007323270 0010743371         000                             00                             93090010100016700000000000000000280121      01                                                             *
101771101230005 0056944309433831000341702700020830270121      000000000030000  000000000000111000000000000111 0452711291         000                             00                             93090010100016800000000000000000280121      01                                                             *
101771101230005 0056944309416417800020020200020831270121      000000000030000  000000004602698000000004602698 0221428230         000                             00                             93090010100016900000000000000000280121      01                                                             *
101771101230005 0056944309433826000130933000020832270121      000000000030000  000000017685276000000017685276 0989363628         000                             00                             93090010100017000000000000000000280121      01                                                             *
101771101230005 0056944309448459800320771900020833270121      000000000025000  000000004664251000000004664251 0231539425         000                             00                             93090010100017100000000000000000280121      02                                                             *
101771101230005 0056944309423985000100144800020834270121      000000000030000  000000016105055000000016105055 0165891972         000                             00                             93090010100017200000000000000000280121      01                                                             *
101771101230005 0056944309468531800001940600020835270121      000000000030000  000000007344081000000007344081 0685472624         000                             00                             93090010100017300000000000000000280121      01                                                             *
101771101230005 0056944309402918847682605400020836270121      000000000030000  000000003938392000000003938392 0674191613         000                             00                             93090010100017400000000000000000280121      03                                                             *
101771101230005 0056944309454640800491278600020837270121      000000000020000  000000004629215000000004629215 0117150962         000                             00                             93090010100017500000000000000000280121      01                                                             *
101771101230005 0056944309454850640620017700020838270121      000000000040000  000000004521320000000004521320 0025578274         000                             00                             93090010100017600000000000000000280121      03                                                             *
101771101230005 0056944309402918731398385400020839270121      000000000050000  000000005259918000000005259918 0562626348         000                             00                             93090010100017700000000000000000280121      03                                                             *
101771101230005 0056944309450815200173779800020840270121      000000000030000  000000011684872000000011684872 0457054191         000                             00                             93090010100017800000000000000000280121      01                                                             *
101771101230005 0056944309402918893845047700020842270121      000000000030000  000000002297459000000002297459 0326813825         000                             00                             93090010100017900000000000000000280121      03                                                             *
101771101230005 0056944309454850000541180600020843270121      000000000030000  000000005155523000000005155523 0146831658         000                             00                             93090010100018000000000000000000280121      02                                                             *
101771101230005 0056944309402918092884033800020844270121      000000000020000  000000014703019000000014703019 0099938190         000                             00                             93090010100018100000000000000000280121      03                                                             *
101771101230005 0056944309479375000635117800020845270121      000000000300000  000000005423613000000005423613 0699872324         000                             00                             93090010100018200000000000000000280121      04                                                             *
101771101230005 0056944309454832001914323200002091270121      000000000030000  000000003733921000000003733921 0235593634         000                             00                             93090010100018300000000000000000280121      02                                                             *
101771101230005 0056944309402918635001131400002093270121      000000000025000  000000018762181000000018762181 0527107828         000                             00                             93090010100018400000000000000000280121      03                                                             *
101771101230005 0056944309454073000985244400002095270121      000000000030000  000000032552309000000032552309 0414852468         000                             00                             93090010100018500000000000000000280121      01                                                             *
101771101230005 0056944309450815200169037700002096270121      000000000020000  000000003762204000000003762204 0427959633         000                             00                             93090010100018600000000000000000280121      01                                                             *
101771101230005 0056944309492306000045830700002097270121      000000000020000  000000005745492000000005745492 0360731891         000                             00                             93090010100018700000000000000000280121      01                                                             *
101771101230005 0056944309454073001500750400002098270121      000000000030000  000000017139100000000017139100 0017912624         000                             00                             93090010100018800000000000000000280121      04                                                             *
101771101230005 0056944309433817800010011400002099270121      000000000030000  000000093443693000000093443693 0109709893         000                             00                             93090010100018900000000000000000280121      01                                                             *
101771101230005 0056944309454642800233069000020911270121      000000000030000  000000001827350000000001827350 0887389674         000                             00                             93090010100019000000000000000000280121      04                                                             *
101771101230005 0056944309454073001006121700020912270121      000000000030000  000000013676059000000013676059 0522622399         000                             00                             93090010100019100000000000000000280121      03                                                             *
101771101230005 0056944309454659091169359900020914270121      000000000030000  000000018037642000000018037642 0406599221         000                             00                             93090010100019204546598000753646280121      01                                                             *
101771101230005 0056944309454073002608499700020915270121      000000000030000  000000005150275000000005150275 0889712610         000                             00                             93090010100019300000000000000000280121      01                                                             *
101771101230005 0056944309450979010771635300020916270121      000000000030000  000000006718433000000006718433 0480358763         000                             00                             93090010100019400000000000000000280121      01                                                             *
101771101230005 0056944309433831800073811300020917270121      000000000080000  000000026739949000000026739949 0326525074         000                             00                             93090010100019500000000000000000280121      01                                                             *
101771101230005 0056944309465403800002935600020919270121      000000000050000  000000022147772000000022147772 0089797387         000                             00                             93090010100019600000000000000000280121      02                                                             *
101771101230005 0056944309402918447871224400020920270121      000000000030000  000000007889239000000007889239 0764081453         000                             00                             93090010100019700000000000000000280121      03                                                             *
101771101230005 0056944309450843001599314800020921270121      000000000060000  000000023868375000000023868375 0467013944         000                             00                             93090010100019800000000000000000280121      02                                                             *
101771101230005 0056944309489321000129680200020922270121      000000000030000  000000005063962000000005063962 0025703948         000                             00                             93090010100019900000000000000000280121      03                                                             *
101771101230005 0056944309454846000330665800020923270121      000000000030000  000000004234813000000004234813 0497956246         000                             00                             93090010100020000000000000000000280121      02                                                             *
101771101240005 0056944309455198000370208900020924270121      000000000030000  000000006524926000000006524926 0140759882         000                             00                             93090020100020200000000000000000280121      03                                                             *
101771101240005 0056944309454850001578140400020925270121      000000000030000  000000004942108000000004942108 0024474085         000                             00                             93090020100020300000000000000000280121      01                                                             *
101771101240005 0056944309454073800065255600020926270121      000000000050000  000000010834776000000010834776 0384702183         179CUENTA SIN DISPONIBLE        00                             93090020100020400000000000000000280121      00                                                             *
101771101240005 0056944309405071011562730400020927270121      000000000030000  000000016038308000000016038308 0455077941         000                             00                             93090020100020500000000000000000280121      01                                                             *
101771101240005 0056944309450844800014666200020928270121      000000000030000  000000003551101000000003551101 0112890731         000                             00                             93090020100020600000000000000000280121      03                                                             *
101771101240005 0056944309450994000649859100020929270121      000000000030000  000000024798476000000024798476 0910637824         000                             00                             93090020100020700000000000000000280121      02                                                             *
101771101240005 0056944309469771000279112100020930270121      000000000030000  000000012347565000000012347565 0691620570         000                             00                             93090020100020800000000000000000280121      01                                                             *
101771101240005 0056944309454073002264118800020931270121      000000000030000  000000004673005000000004673005 0784492345         000                             00                             93090020100020900000000000000000280121      01                                                             *
101771101240005 0056944309498435000063824800020932270121      000000000030000  000000020679425000000020679425 0422032496         000                             00                             93090020100021000000000000000000280121      02                                                             *
101771101240005 0056944309450979021801505900020933270121      000000000050000  000000013035535000000013035535 0861506824         154TARJETA DADA DE BAJA         00                             93090020100021100000000000000000280121      00                                                             *
101771101240005 0056944309454846000680532600020935270121      000000000030000  000000011500499000000011500499 0831208004         000                             00                             93090020100021200000000000000000280121      02                                                             *
101771101240005 0056944309405071016881390000020936270121      000000000050000  000000008372765000000008372765 0812306022         000                             00                             93090020100021300000000000000000280121      04                                                             *
101771101240005 0056944309450995022644692400020937270121      000000000020000  000000008207589000000008207589 0674917787         191BAJA DE DEB. AUT. SOLICITADA 00                             93090020100021400000000000000000280121      00                                                             *
101771101240005 0056944309450843000611549500020938270121      000000000020000  000000010644083000000010644083 0267304167         000                             00                             93090020100021500000000000000000280121      04                                                             *
101771101240005 0056944309402918856083228100020939270121      000000000030000  000000008325397000000008325397 0877474849         000                             00                             93090020100021600000000000000000280121      03                                                             *
101771101240005 0056944309469724800027089700020940270121      000000000040000  000000007791793000000007791793 0208495969         000                             00                             93090020100021700000000000000000280121      02                                                             *
101771101240005 0056944309450843000646404200020941270121      000000000030000  000000005324914000000005324914 0019741826         179CUENTA SIN DISPONIBLE        00                             93090020100021800000000000000000280121      00                                                             *
101771101240005 0056944309454850001577357500020942270121      000000000020000  000000010279226000000010279226 0732782342         000                             00                             93090020100021900000000000000000280121      01                                                             *
101771101240005 0056944309459354800074170500020943270121      000000000050000  000000013513466000000013513466 0020733786         000                             00                             93090020100022000000000000000000280121      01                                                             *
101771101240005 0056944309450979008006388000020101270121      000000000030000  000000004307427000000004307427 0077951647         000                             00                             93090020100022100000000000000000280121      04                                                             *
101771101240005 0056944309402918362415032500020102270121      000000000030000  000000002034109000000002034109 0326724174         000                             00                             93090020100022200000000000000000280121      03                                                             *
101771101240005 0056944309405645000012523900020103270121      000000000020000  000000004506313000000004506313 0888814904         000                             00                             93090020100022300000000000000000280121      02                                                             *
101771101240005 0056944309469700000211478300020104270121      000000000020000  000000018343096000000018343096 0849063228         000                             00                             93090020100022400000000000000000280121      02                                                             *
101771101240005 0056944309466057010221281300020106270121      000000000030000  000000004927670000000004927670 0052366596         000                             00                             93090020100022500000000000000000280121      04                                                             *
101771101240005 0056944309454450300003166400020107270121      000000000030000  000000002858713000000002858713 0383191089         000                             00                             93090020100022604544252000388944280121      04                                                             *
101771101240005 0056944309454073002671287800020108270121      000000000020000  000000011993470000000011993470 0896271867         000                             00                             93090020100022700000000000000000280121      01                                                             *
101771101240005 0056944309492043000289941500020109270121      000000000020000  000000018499989000000018499989 0082672694         000                             00                             93090020100022800000000000000000280121      01                                                             *
101771101240005 0056944309454075800197351200201010270121      000000000020000  000000012853471000000012853471 0032588004         000                             00                             93090020100022900000000000000000280121      01                                                             *
101771101240005 0056944309497414822950861000201011270121      000000000050000  000000092905854000000092905854 0000000000         000                             00                             93090020100023000000000000000000280121      04                                                             *
101771101240005 0056944309473247000058216500201013270121      000000000030000  000000004700291000000004700291 0383472333         000                             00                             93090020100023100000000000000000280121      02                                                             *
101771101240005 0056944309405071010370923900201014270121      000000000030000  000000012437731000000012437731 0395703317         000                             00                             93090020100023200000000000000000280121      01                                                             *
101771101240005 0056944309450995801125813100201016270121      000000000030000  000000005530112000000005530112 0809958421         000                             00                             93090020100023300000000000000000280121      03                                                             *
101771101240005 0056944309405071014953402100201018270121      000000000050000  000000010116117000000010116117 0667955383         000                             00                             93090020100023400000000000000000280121      01                                                             *
101771101240005 0056944309450832800186953000201019270121      000000000030000  000000006264730000000006264730 0699048064         000                             00                             93090020100023500000000000000000280121      02                                                             *
101771101240005 0056944309466057011983629900201020270121      000000000040000  000000004515436000000004515436 0724589344         000                             00                             93090020100023600000000000000000280121      01                                                             *
101771101240005 0056944309454073002697475900201021270121      000000000050000  000000026649516000000026649516 0897419271         000                             00                             93090020100023700000000000000000280121      01                                                             *
101771101240005 0056944309454642002480074300201022270121      000000000030000  000000022693698000000022693698 0944194630         000                             00                             93090020100023800000000000000000280121      01                                                             *
101771101240005 0056944309454846000765335200201023270121      000000000030000  000000013366039000000013366039 0072029268         000                             00                             93090020100023900000000000000000280121      02                                                             *
101771101240005 0056944309498484000018144700201024270121      000000000030000  000000004925176000000004925176 0095390774         000                             00                             93090020100024000000000000000000280121      01                                                             *
101771101240005 0056944309450832000486674600201025270121      000000000050000  000000093381782000000093381782 0023143980         179CUENTA SIN DISPONIBLE        00                             93090020100024100000000000000000280121      00                                                             *
101771101240005 0056944309479375800037557200201026270121      000000000030000  000000004853073000000004853073 0053131746         000                             00                             93090020100024200000000000000000280121      02                                                             *
101771101240005 0056944309454846000596216900201027270121      000000000030000  000000005937497000000005937497 0190904126         000                             00                             93090020100024300000000000000000280121      02                                                             *
101771101240005 0056944309433830001055955600201028270121      000000000030000  000000026419306000000026419306 0357070077         000                             00                             93090020100024400000000000000000280121      02                                                             *
101771101240005 0056944309450832000637503500201029270121      000000000030000  000000023381360000000023381360 0254334474         000                             00                             93090020100024500000000000000000280121      02                                                             *
101771101240005 0056944309405071006558614600201030270121      000000000030000  000000020343178000000020343178 0339209998         000                             00                             93090020100024600000000000000000280121      04                                                             *
101771101240005 0056944309454073002714673800201031270121      000000000050000  000000021925468000000021925468 0101941307         000                             00                             93090020100024700000000000000000280121      01                                                             *
101771101240005 0056944309462082800000153300201032270121      000000000050000  000000007359775000000007359775 0935213649         000                             00                             93090020100024800000000000000000280121      04                                                             *
101771101240005 0056944309450843003824238200201033270121      000000000060000  000000016503551000000016503551 0226699987         000                             00                             93090020100024900000000000000000280121      02                                                             *
101771101240005 0056944309454073000772796000201034270121      000000000030000  000000001386259000000001386259 0360945751         000                             00                             93090020100025000000000000000000280121      02                                                             *
101771101240005 0056944309454846000793587400201035270121      000000000030000  000000005093712000000005093712 0640038029         000                             00                             93090020100025100000000000000000280121      01                                                             *
101771101240005 0056944309450979008006388000020111270121      000000000030000  000000004307427000000004307427 0077951647         000                             00                             93090020100025200000000000000000280121      04                                                             *
101771101240005 0056944309454659092937949600020112270121      000000000020000  000000011230790000000011230790 0006636342         000                             00                             93090020100025300000000000000000280121      01                                                             *
101771101240005 0056944309450843800330983900020113270121      000000000030000  000000004659149000000004659149 0512622075         000                             00                             93090020100025400000000000000000280121      02                                                             *
101771101240005 0056944309430496003357925100020114270121      000000000020000  000000004868768000000004868768 0312601405         000                             00                             93090020100025500000000000000000280121      02                                                             *
101771101240005 0056944309450995022970387500020115270121      000000000180000  000000011774402000000011774402 0809908983         000                             00                             93090020100025600000000000000000280121      04                                                             *
101771101240005 0056944309455197800042950800020116270121      000000000030000  000000005989715000000005989715 0567860848         000                             00                             93090020100025700000000000000000280121      04                                                             *
101771101240005 0056944309402918288904115300020117270121      000000000030000  000000011315532000000011315532 0800245520         000                             00                             93090020100025800000000000000000280121      03                                                             *
101771101240005 0056944309402918908607457200020118270121      000000000020000  000000001769043000000001769043 0618527559         000                             00                             93090020100025904029187653409973280121      03                                                             *
101771101240005 0056944309455198800027597500020119270121      000000000050000  000000001895056000000001895056 0447525513         000                             00                             93090020100026000000000000000000280121      02                                                             *
101771101240005 0056944309454073003398874300201110270121      000000000030000  000000010426901000000010426901 0491183295         000                             00                             93090020100026100000000000000000280121      01                                                             *
101771101240005 0056944309402918670876458000201111270121      000000000030000  000000014739720000000014739720 0142010521         000                             00                             93090020100026200000000000000000280121      03                                                             *
101771101240005 0056944309405071017401156400201112270121      000000000100000  000000032473482000000032473482 1012725509         000                             00                             93090020100026300000000000000000280121      01                                                             *
101771101240005 0056944309402918012967665500201113270121      000000000060000  000000027775863000000027775863 0482870825         000                             00                             93090020100026400000000000000000280121      03                                                             *
101771101240005 0056944309466057011875866800201114270121      000000000060000  000000022626872000000022626872 0810455290         000                             00                             93090020100026500000000000000000280121      04                                                             *
101771101240005 0056944309454832000441969600201115270121      000000000030000  000000013325341000000013325341 0325481126         000                             00                             93090020100026600000000000000000280121      02                                                             *
101771101240005 0056944309454850001565725700201116270121      000000000060000  000000012204696000000012204696 0025174267         000                             00                             93090020100026700000000000000000280121      03                                                             *
101771101240005 0056944309402918959699897100201117270121      000000000030000  000000011296335000000011296335 0855067098         000                             00                             93090020100026800000000000000000280121      03                                                             *
101771101240005 0056944309450843800329787700201118270121      000000000040000  000000011086789000000011086789 0426808066         000                             00                             93090020100026900000000000000000280121      02                                                             *
101771101240005 0056944309454850300151411000201119270121      000000000030000  000000003918466000000003918466 0213724081         000                             00                             93090020100027000000000000000000280121      02                                                             *
101771101240005 0056944309450832001768112400201120270121      000000000060000  000000004453765000000004453765 0712297620         000                             00                             93090020100027100000000000000000280121      02                                                             *
101771101240005 0056944309450750200025152500201121270121      000000000030000  000000013185050000000013185050 0818676857         000                             00                             93090020100027200000000000000000280121      02                                                             *
101771101240005 0056944309455197000158920800201122270121      000000000030000  000000003499558000000003499558 0096896363         000                             00                             93090020100027300000000000000000280121      04                                                             *
101771101240005 0056944309454075800509576700201123270121      000000000030000  000000004569011000000004569011 0180354546         000                             00                             93090020100027400000000000000000280121      01                                                             *
101771101240005 0056944309454850001383535000201124270121      000000000030000  000000093502038000000093502038 0566832958         000                             00                             93090020100027500000000000000000280121      03                                                             *
101771101240005 0056944309456583000353806200201125270121      000000000030000  000000004234437000000004234437 0713886689         000                             00                             93090020100027600000000000000000280121      01                                                             *
101771101240005 0056944309459354000336174800201126270121      000000000030000  000000013751953000000013751953 0713931280         000                             00                             93090020100027700000000000000000280121      02                                                             *
101771101240005 0056944309489321000113992900201127270121      000000000020000  000000016477241000000016477241 0848134059         000                             00                             93090020100027800000000000000000280121      02                                                             *
101771101240005 0056944309482469000084732100201128270121      000000000030000  000000012204964000000012204964 0096882568         000                             00                             93090020100027900000000000000000280121      01                                                             *
101771101240005 0056944309456513200038507000201129270121      000000000045000  000000029848388000000029848388 0886900399         000                             00                             93090020100028000000000000000000280121      01                                                             *
101771101240005 0056944309455197000278896500201130270121      000000000200000  000000002963146000000002963146 0446656210         000                             00                             93090020100028100000000000000000280121      02                                                             *
101771101240005 0056944309491956000008926300201131270121      000000000020000  000000016541479000000016541479 0378105350         000                             00                             93090020100028204555990021197515280121      03                                                             *
101771101240005 0056944309454073002285394000201132270121      000000000040000  000000008595816000000008595816 0046725002         000                             00                             93090020100028300000000000000000280121      01                                                             *
101771101240005 0056944309470455800044990800201133270121      000000000050000  000000022505932000000022505932 0901115278         000                             00                             93090020100028400000000000000000280121      01                                                             *
101771101240005 0056944309454075003482648600201134270121      000000000020000  000000012103141000000012103141 0350697369         000                             00                             93090020100028500000000000000000280121      02                                                             *
101771101240005 0056944309476540000087579800201135270121      000000000020000  000000002489911000000002489911 0552947761         000                             00                             93090020100028600000000000000000280121      01                                                             *
101771101240005 0056944309454657104054475400201136270121      000000000030000  000000004229060000000004229060 0010255311         000                             00                             93090020100028700000000000000000280121      04                                                             *
101771101240005 0056944309438228000258141900201139270121      000000000030000  000000006027880000000006027880 0497038728         000                             00                             93090020100028800000000000000000280121      02                                                             *
101771101240005 0056944309454073001036145000201140270121      000000000020000  000000005480687000000005480687 0633223182         000                             00                             93090020100028900000000000000000280121      01                                                             *
101771101240005 0056944309402918372628157200201141270121      000000000030000  000000006695823000000006695823 0710863124         000                             00                             93090020100029000000000000000000280121      03                                                             *
101771101240005 0056944309479352000090116500201142270121      000000000030000  000000016050623000000016050623 0729265252         000                             00                             93090020100029100000000000000000280121      01                                                             *
101771101240005 0056944309454074000831201900201143270121      000000000020000  000000014937709000000014937709 0352778051         000                             00                             93090020100029200000000000000000280121      02                                                             *
101771101240005 0056944309433810000014691300201144270121      000000000020000  000000005868201000000005868201 0726747735         000                             00                             93090020100029300000000000000000280121      02                                                             *
101771101240005 0056944309450750300005404200201145270121      000000000030000  000000092682635000000092682635 0829011818         000                             00                             93090020100029400000000000000000280121      02                                                             *
101771101240005 0056944309450843800076253500201146270121      000000000030000  000000012005023000000012005023 0100692077         000                             00                             93090020100029500000000000000000280121      02                                                             *
101771101240005 0056944309450843001264342300201147270121      000000000030000  000000004031574000000004031574 0026165251         000                             00                             93090020100029600000000000000000280121      04                                                             *
101771101240005 0056944309425821000514297700201148270121      000000000040000  000000026409557000000026409557 0469985726         000                             00                             93090020100029700000000000000000280121      01                                                             *
101771101240005 0056944309479376800017655700201149270121      000000000045000  000000027029605000000027029605 0920684878         000                             00                             93090020100029800000000000000000280121      03                                                             *
101771101240005 0056944309450750200051327000201150270121      000000000100000  000000003639445000000003639445 0583886831         000                             00                             93090020100029900000000000000000280121      02                                                             *
101771101240005 0056944309454657102672160800201151270121      000000000030000  000000009985580000000009985580 0017745752         000                             00                             93090020100030000000000000000000280121      02                                                             *
101771101250005 0056944309450910000688083100201152270121      000000000025000  000000006266227000000006266227 0414667293         000                             00                             93090030100030200000000000000000280121      02                                                             *
101771101250005 0056944309450832001457302700201153270121      000000000025000  000000005790731000000005790731 0589614036         000                             00                             93090030100030300000000000000000280121      01                                                             *
101771101250005 0056944309450815200355673300201154270121      000000000030000  000000028871617000000028871617 0684127037         000                             00                             93090030100030400000000000000000280121      02                                                             *
101771101250005 0056944309455349000970642100201155270121      000000000060000  000000025047548000000025047548 1015796643         000                             00                             93090030100030500000000000000000280121      01                                                             *
101771101250005 0056944309402918307728333400020121270121      000000000030000  000000004472744000000004472744 0161262448         000                             00                             93090030100030600000000000000000280121      03                                                             *
101771101250005 0056944309424965000027934400020122270121      000000000060000  000000012219467000000012219467 0560500503         179CUENTA SIN DISPONIBLE        00                             93090030100030700000000000000000280121      00                                                             *
101771101250005 0056944309498434000066688500020123270121      000000000060000  000000014399370000000014399370 0622845456         000                             00                             93090030100030800000000000000000280121      02                                                             *
101771101250005 0056944309454832300137727100020124270121      000000000030000  000000016547551000000016547551 0168674583         000                             00                             93090030100030900000000000000000280121      01                                                             *
101771101250005 0056944309450843800294531000020125270121      000000000020000  000000003048792000000003048792 0673454009         000                             00                             93090030100031000000000000000000280121      02                                                             *
101771101250005 0056944309469700800009257000020126270121      000000000020000  000000013870815000000013870815 0860157894         000                             00                             93090030100031100000000000000000280121      03                                                             *
101771101250005 0056944309402918714099228400020127270121      000000000050000  000000012433019000000012433019 0881712335         000                             00                             93090030100031200000000000000000280121      03                                                             *
101771101250005 0056944309450994800048127300020128270121      000000000020000  000000004699871000000004699871 0557053410         000                             00                             93090030100031300000000000000000280121      02                                                             *
101771101250005 0056944309466057011411268800020129270121      000000000030000  000000014304451000000014304451 0434878402         000                             00                             93090030100031400000000000000000280121      01                                                             *
101771101250005 0056944309450979022679299600201210270121      000000000050000  000000006522584000000006522584 0810419564         000                             00                             93090030100031500000000000000000280121      03                                                             *
101771101250005 0056944309455349000970642100201211270121      000000000060000  000000025047548000000025047548 1015796643         000                             00                             93090030100031600000000000000000280121      01                                                             *
101771101250005 0056944309466057011826767800201212270121      000000000030000  000000013923023000000013923023 0988852996         000                             00                             93090030100031700000000000000000280121      01                                                             *
101771101250005 0056944309469701000140870600201213270121      000000000030000  000000029903500000000029903500 0570447313         000                             00                             93090030100031800000000000000000280121      02                                                             *
101771101250005 0056944309402785000212641400201214270121      000000000030000  000000011001715000000011001715 0476180424         000                             00                             93090030100031900000000000000000280121      01                                                             *
101771101250005 0056944309430497000769890400201215270121      000000000030000  000000028859130000000028859130 0408917896         000                             00                             93090030100032000000000000000000280121      02                                                             *
101771101250005 0056944309454148000589943200201216270121      000000000050000  000000092755879000000092755879 0441471966         000                             00                             93090030100032100000000000000000280121      02                                                             *
101771101250005 0056944309454846300088238200201217270121      000000000020000  000000010371223000000010371223 0359466452         000                             00                             93090030100032200000000000000000280121      01                                                             *
101771101250005 0056944309454073001458388500201218270121      000000000040000  000000011951280000000011951280 0713943966         000                             00                             93090030100032300000000000000000280121      01                                                             *
101771101250005 0056944309402918193283403600201219270121      000000000050000  000000010615632000000010615632 0498308398         000                             00                             93090030100032400000000000000000280121      03                                                             *
101771101250005 0056944309450994000373104400201220270121      000000000020000  000000007114383000000007114383 0599120194         000                             00                             93090030100032500000000000000000280121      01                                                             *
101771101250005 0056944309454642001949716600201221270121      000000000030000  000000020950536000000020950536 0495964755         000                             00                             93090030100032600000000000000000280121      01                                                             *
101771101250005 0056944309430496800083070600201222270121      000000000030000  000000024577752000000024577752 0137180824         000                             00                             93090030100032700000000000000000280121      01                                                             *
101771101250005 0056944309466057012168451300201223270121      000000000050000  000000023015059000000023015059 0169214731         000                             00                             93090030100032800000000000000000280121      01                                                             *
101771101250005 0056944309450832800189708500201224270121      000000000030000  000000003863006000000003863006 0496319455         000                             00                             93090030100032900000000000000000280121      02                                                             *
101771101250005 0056944309402918538495880500201225270121      000000000060000  000000033484360000000033484360 0533250383         000                             00                             93090030100033000000000000000000280121      03                                                             *
101771101250005 0056944309402918230947858900201226270121      000000000020000  000000001728496000000001728496 0369959175         000                             00                             93090030100033100000000000000000280121      03                                                             *
101771101250005 0056944309454073002508010300201228270121      000000000020000  000000021982245000000021982245 0878716917         000                             00                             93090030100033200000000000000000280121      01                                                             *
101771101250005 0056944309423985000015187100201229270121      000000000060000  000000017426387000000017426387 0375622764         000                             00                             93090030100033300000000000000000280121      01                                                             *
101771101250005 0056944309470455800028429700201230270121      000000000060000  000000031343138000000031343138 0745677448         000                             00                             93090030100033400000000000000000280121      01                                                             *
101771101250005 0056944309402918450026548400201231270121      000000000060000  000000022242928000000022242928 0509470971         000                             00                             93090030100033500000000000000000280121      03                                                             *
