0RDEBLIMC900000    0056944317202101281418                                                                                                                                                                                                                                                                  *
101771101030005 005694431754655364425888510000201127012179695 000000000040000  000000093409154000000093409154 0000000000         000                             00                             93170000100000200000000000000000280121      00                                                             *
101771101030005 005694431752392060737634220000201227012178825 000000000030000  000000020501938000000020501938 0000000000         000                             00                             93170000100000300000000000000000280121      00                                                             *
101771101030005 005694431752392084504601920000201327012178835 000000000040000  000000007030897000000007030897 0000000000         000                             00                             93170000100000400000000000000000280121      00                                                             *
101771101030005 005694431754655369619525530000201427012179664 000000000050000  000000005176402000000005176402 0000000000         000                             00                             93170000100000500000000000000000280121      00                                                             *
101771101030005 0056944317520053155991830600002031270121      000000000030000  000000006606704000000006606704 0000000000         198AUTORIZ. DENEGADA POR EL EMIS00                             93170000100000600000000000000000280121      00                                                             *
101771101030005 005694431755919856634496800000203327012180350 000000000035000  000000025237721000000025237721 0000000000         000                             00                             93170000100000700000000000000000280121      00                                                             *
101771101030005 005694431752005337592884800000203427012178609 000000000030000  000000012789963000000012789963 0000000000         000                             00                             93170000100000800000000000000000280121      00                                                             *
101771101030005 005694431755023075722884970000203527012179865 000000000100000  000000003736024000000003736024 0000000000         000                             00                             93170000100000900000000000000000280121      00                                                             *
101771101030005 005694431755428827389399200000204127012179983 000000000030000  000000005560380000000005560380 0000000000         000                             00                             93170000100001000000000000000000280121      00                                                             *
101771101030005 005694431754655268234331160000204227012179616 000000000025000  000000005799889000000005799889 0000000000         000                             00                             93170000100001100000000000000000280121      00                                                             *
101771101030005 0056944317549565794532276400002043270121      000000000025000  000000010266291000000010266291 0000000000         198AUTORIZ. DENEGADA POR EL EMIS00                             93170000100001200000000000000000280121      00                                                             *
101771101030005 005694431752213501525432380000204427012178721 000000000030000  000000012127309000000012127309 0000000000         000                             00                             93170000100001300000000000000000280121      00                                                             *
101771101030005 005694431754565243222196160000204527012179555 000000000024000  000000031344052000000031344052 0000000000         000                             00                             93170000100001400000000000000000280121      00                                                             *
101771101030005 005694431754655334952478160000204627012179654 000000000030000  000000011931883000000011931883 0000000000         000                             00                             93170000100001500000000000000000280121      00                                                             *
101771101030005 005694431752005336680799700000204827012178610 000000000030000  000000006149458000000006149458 0000000000         000                             00                             93170000100001600000000000000000280121      00                                                             *
101771101030005 005694431754655382382254330000204927012179672 000000000020000  000000003977574000000003977574 0000000000         000                             00                             93170000100001700000000000000000280121      00                                                             *
101771101030005 005694431752393761710031020002041027012178853 000000000030000  000000011372508000000011372508 0000000000         000                             00                             93170000100001800000000000000000280121      00                                                             *
101771101030005 005694431753665044383424020002041127012179366 000000000100000  000000047710029000000047710029 0000000000         000                             00                             93170000100001900000000000000000280121      00                                                             *
101771101030005 005694431755919870329357200002041427012180402 000000000035000  000000006178531000000006178531 0000000000         000                             00                             93170000100002000000000000000000280121      00                                                             *
101771101030005 005694431752213566927508290000205127012178736 000000000030000  000000010429629000000010429629 0000000000         000                             00                             93170000100002100000000000000000280121      00                                                             *
101771101030005 005694431752681024932585450000205227012180945 000000000035000  000000003613271000000003613271 0000000000         000                             00                             93170000100002200000000000000000280121      00                                                             *
101771101030005 005694431754879043084181140000205327012179773 000000000030000  000000005592219000000005592219 0000000000         000                             00                             93170000100002300000000000000000280121      00                                                             *
101771101030005 005694431752858737142670070000205427012179113 000000000025000  000000005669366000000005669366 0000000000         000                             00                             93170000100002400000000000000000280121      00                                                             *
101771101030005 005694431754655305696248880000205527012179589 000000000020000  000000010462580000000010462580 0000000000         000                             00                             93170000100002500000000000000000280121      00                                                             *
101771101030005 005694431752548931140841140000205627012178933 000000000030000  000000010228693000000010228693 0000000000         000                             00                             93170000100002600000000000000000280121      00                                                             *
101771101030005 005694431754655373508653490000205727012179674 000000000030000  000000002041643000000002041643 0000000000         000                             00                             93170000100002700000000000000000280121      00                                                             *
101771101030005 005694431751242175287991330000205927012178448 000000000020000  000000004590960000000004590960 0000000000         000                             00                             93170000100002800000000000000000280121      00                                                             *
101771101030005 0056944317542702198253732600020511270121      000000000030000  000000003623095000000003623095 0000000000         198AUTORIZ. DENEGADA POR EL EMIS00                             93170000100002900000000000000000280121      00                                                             *
101771101030005 005694431753880700002252390002051227012181012 000000000050000  000000004285953000000004285953 0000000000         000                             00                             93170000100003000000000000000000280121      00                                                             *
101771101030005 005694431753665004197566020002051327012179343 000000000040000  000000023168935000000023168935 0000000000         000                             00                             93170000100003100000000000000000280121      00                                                             *
101771101030005 005694431755919882421217960002051427012180414 000000000020000  000000005212939000000005212939 0000000000         000                             00                             93170000100003200000000000000000280121      00                                                             *
101771101030005 005694431752005351730696510002051527012178623 000000000030000  000000007668000000000007668000 0000000000         000                             00                             93170000100003300000000000000000280121      00                                                             *
101771101030005 0056944317512421484703047200002061270121      000000000030000  000000003696769000000003696769 0000000000         179CUENTA SIN DISPONIBLE        00                             93170000100003400000000000000000280121      00                                                             *
101771101030005 005694431752005343828377500000206227012178616 000000000020000  000000005282936000000005282936 0000000000         000                             00                             93170000100003500000000000000000280121      00                                                             *
101771101030005 005694431754476417325098810000206327012199842 000000000030000  000000004563971000000004563971 0000000000         000                             00                             93170000100003600000000000000000280121      00                                                             *
101771101030005 005694431754270294926821100000206427012148505 000000000020000  000000005941220000000005941220 0000000000         000                             00                             93170000100003700000000000000000280121      00                                                             *
101771101030005 005694431754476421367382740000206527012194364 000000000020000  000000006883414000000006883414 0000000000         000                             00                             93170000100003800000000000000000280121      00                                                             *
101771101030005 005694431755919868691030140000206627012180431 000000000030000  000000012974089000000012974089 0000000000         000                             00                             93170000100003900000000000000000280121      00                                                             *
101771101030005 005694431755056896408139690000206727012179957 000000000025000  000000024288382000000024288382 0000000000         000                             00                             93170000100004000000000000000000280121      00                                                             *
101771101030005 005694431753880730172053190000206827012181015 000000000030000  000000006252598000000006252598 0000000000         000                             00                             93170000100004100000000000000000280121      00                                                             *
101771101030005 005694431751174094853232340000206927012178405 000000000020000  000000006295761000000006295761 0000000000         000                             00                             93170000100004200000000000000000280121      00                                                             *
101771101030005 0056944317546553850346957500020610270121      000000000030000  000000004491977000000004491977 0000000000         179CUENTA SIN DISPONIBLE        00                             93170000100004300000000000000000280121      00                                                             *
101771101030005 005694431753880734234886730002061127012181017 000000000030000  000000006367373000000006367373 0000000000         000                             00                             93170000100004400000000000000000280121      00                                                             *
101771101030005 005694431754431268040858730002061227012179532 000000000050000  000000010075691000000010075691 0000000000         000                             00                             93170000100004500000000000000000280121      00                                                             *
101771101030005 005694431755022634235250270000207127012179967 000000000020000  000000002438048000000002438048 0000000000         000                             00                             93170000100004600000000000000000280121      00                                                             *
101771101030005 005694431755919883228437150000207227012180472 000000000030000  000000010866938000000010866938 0000000000         000                             00                             93170000100004700000000000000000280121      00                                                             *
101771101030005 0056944317542702110390394400002073270121      000000000050000  000000005240982000000005240982 0000000000         198AUTORIZ. DENEGADA POR EL EMIS00                             93170000100004800000000000000000280121      00                                                             *
101771101030005 005694431754655379912192780000207427012179800 000000000020000  000000007571466000000007571466 0000000000         000                             00                             93170000100004900000000000000000280121      00                                                             *
101771101030005 005694431753880712961373930000207527012181016 000000000030000  000000006264400000000006264400 0000000000         000                             00                             93170000100005000000000000000000280121      00                                                             *
101771101030005 005694431755919862261042180000207627012180428 000000000030000  000000011880009000000011880009 0000000000         000                             00                             93170000100005100000000000000000280121      00                                                             *
101771101030005 005694431753532368464401490000207727012179279 000000000050000  000000004387784000000004387784 0000000000         000                             00                             93170000100005200000000000000000280121      00                                                             *
101771101030005 0056944317546553641623225400002078270121      000000000030000  000000004107151000000004107151 0000000000         179CUENTA SIN DISPONIBLE        00                             93170000100005300000000000000000280121      00                                                             *
101771101030005 0056944317546553411819161300002079270121      000000000030000  000000003894427000000003894427 0000000000         198AUTORIZ. DENEGADA POR EL EMIS00                             93170000100005400000000000000000280121      00                                                             *
101771101030005 005694431752005397037819750002071027012178700 000000000030000  000000003889288000000003889288 0000000000         000                             00                             93170000100005500000000000000000280121      00                                                             *
101771101030005 005694431752005395301351480000208127012178702 000000000030000  000000013692535000000013692535 0000000000         000                             00                             93170000100005600000000000000000280121      00                                                             *
101771101030005 005694431753106673546146790000208227012179200 000000000030000  000000003796092000000003796092 0000000000         000                             00                             93170000100005700000000000000000280121      00                                                             *
101771101030005 005694431752005332062191200000208327012178606 000000000020000  000000002964139000000002964139 0000000000         000                             00                             93170000100005800000000000000000280121      00                                                             *
101771101030005 005694431752005304060450730000208427012178531 000000000040000  000000006259669000000006259669 0000000000         000                             00                             93170000100005900000000000000000280121      00                                                             *
101771101030005 005694431752005397639237720000208527012178699 000000000150000  000000003743408000000003743408 0000000000         000                             00                             93170000100006000000000000000000280121      00                                                             *
101771101030005 005694431754476414276452630000208627012125457 000000000060000  000000026014598000000026014598 0000000000         000                             00                             93170000100006100000000000000000280121      00                                                             *
101771101030005 0056944317520053777756102600002087270121      000000000060000  000000017474522000000017474522 0000000000         198AUTORIZ. DENEGADA POR EL EMIS00                             93170000100006200000000000000000280121      00                                                             *
101771101030005 0056944317548790908067842100002091270121      000000000030000  000000008265904000000008265904 0000000000         179CUENTA SIN DISPONIBLE        00                             93170000100006300000000000000000280121      00                                                             *
101771101030005 005694431754655318230146350000209227012179641 000000000050000  000000007319448000000007319448 0000000000         000                             00                             93170000100006400000000000000000280121      00                                                             *
101771101030005 005694431753532370111916160000209327012179271 000000000030000  000000005122052000000005122052 0000000000         000                             00                             93170000100006500000000000000000280121      00                                                             *
101771101030005 005694431752681023481547250000209427012180943 000000000050000  000000014571538000000014571538 0000000000         000                             00                             93170000100006600000000000000000280121      00                                                             *
101771101030005 005694431752005304548863940000209527012178548 000000000040000  000000004173476000000004173476 0000000000         000                             00                             93170000100006700000000000000000280121      00                                                             *
101771101030005 005694431754655328802438440000209627012179605 000000000020000  000000004424723000000004424723 0000000000         000                             00                             93170000100006800000000000000000280121      00                                                             *
101771101030005 005694431752005390572532410000209727012178692 000000000020000  000000006818584000000006818584 0000000000         000                             00                             93170000100006900000000000000000280121      00                                                             *
101771101030005 005694431752393712386564710000209827012178848 000000000050000  000000013048543000000013048543 0000000000         000                             00                             93170000100007000000000000000000280121      00                                                             *
101771101030005 005694431752548926513345360000209927012178934 000000000030000  000000001443794000000001443794 0000000000         000                             00                             93170000100007100000000000000000280121      00                                                             *
101771101030005 005694431751174004252471200002091127012178357 000000000030000  000000014149550000000014149550 0000000000         000                             00                             93170000100007200000000000000000280121      00                                                             *
101771101030005 005694431751242146513763750002091227012178452 000000000050000  000000004615279000000004615279 0000000000         000                             00                             93170000100007300000000000000000280121      00                                                             *
101771101030005 005694431752005316823533710002091327012178559 000000000020000  000000005632642000000005632642 0000000000         000                             00                             93170000100007400000000000000000280121      00                                                             *
101771101030005 005694431752548900332465430002091427012178885 000000000020000  000000002622043000000002622043 0000000000         000                             00                             93170000100007500000000000000000280121      00                                                             *
101771101030005 0056944317523920198106725500020101270121      000000000030000  000000012243893000000012243893 0000000000         179CUENTA SIN DISPONIBLE        00                             93170000100007600000000000000000280121      00                                                             *
101771101030005 005694431753236929488265840002010227012179219 000000000050000  000000004413326000000004413326 0000000000         000                             00                             93170000100007700000000000000000280121      00                                                             *
101771101030005 005694431753880713758737690002010327012181017 000000000050000  000000005240520000000005240520 0000000000         000                             00                             93170000100007800000000000000000280121      00                                                             *
101771101030005 005694431752005369344721920002010427012178669 000000000030000  000000006522211000000006522211 0000000000         000                             00                             93170000100007900000000000000000280121      00                                                             *
101771101030005 005694431753532308086616100002010527012179287 000000000030000  000000006516011000000006516011 0000000000         000                             00                             93170000100008000000000000000000280121      00                                                             *
101771101030005 005694431752005344705902460002010727012178613 000000000030000  000000004095086000000004095086 0000000000         000                             00                             93170000100008100000000000000000280121      00                                                             *
101771101030005 0056944317554288446439360300020108270121      000000000050000  000000018844155000000018844155 0000000000         179CUENTA SIN DISPONIBLE        00                             93170000100008200000000000000000280121      00                                                             *
101771101030005 005694431755023027240268380020101027012179892 000000000030000  000000004259821000000004259821 0000000000         000                             00                             93170000100008300000000000000000280121      00                                                             *
101771101030005 005694431752005370413502550020101127012178680 000000000050000  000000004576327000000004576327 0000000000         000                             00                             93170000100008400000000000000000280121      00                                                             *
101771101030005 0056944317523457481454156200201013270121      000000000060000  000000014399370000000014399370 0000000000         179CUENTA SIN DISPONIBLE        00                             93170000100008500000000000000000280121      00                                                             *
101771101030005 005694431751866447057578880002011127012178508 000000000040000  000000025746864000000025746864 0000000000         000                             00                             93170000100008600000000000000000280121      00                                                             *
101771101030005 0056944317527572979561386900020112270121      000000000030000  000000005869755000000005869755 0000000000         198AUTORIZ. DENEGADA POR EL EMIS00                             93170000100008700000000000000000280121      00                                                             *
101771101030005 005694431754270274280222110002011327012105205 000000000020000  000000029177865000000029177865 0000000000         000                             00                             93170000100008800000000000000000280121      00                                                             *
101771101030005 005694431754164628405594530002011427012179480 000000000060000  000000010443407000000010443407 0000000000         000                             00                             93170000100008900000000000000000280121      00                                                             *
101771101030005 005694431752005395254375660002011527012178725 000000000030000  000000000000011000000000000011 0000000000         000                             00                             93170000100009000000000000000000280121      00                                                             *
101771101030005 005694431754270250689757710002011627012126931 000000000020000  000000008584111000000008584111 0000000000         000                             00                             93170000100009100000000000000000280121      00                                                             *
101771101030005 005694431752393775672297800002011727012178892 000000000050000  000000005148029000000005148029 0000000000         000                             00                             93170000100009200000000000000000280121      00                                                             *
101771101030005 0056944317553668504814923100020118270121      000000000020000  000000005125291000000005125291 0000000000         198AUTORIZ. DENEGADA POR EL EMIS00                             93170000100009300000000000000000280121      00                                                             *
101771101030005 005694431752005365436320610002011927012178682 000000000030000  000000004161203000000004161203 0000000000         000                             00                             93170000100009400000000000000000280121      00                                                             *
101771101030005 005694431754270210889707850020111027012187369 000000000020000  000000005746407000000005746407 0000000000         000                             00                             93170000100009500000000000000000280121      00                                                             *
101771101030005 005694431755366876961286320020111127012179953 000000000050000  000000005472804000000005472804 0000000000         000                             00                             93170000100009600000000000000000280121      00                                                             *
101771101030005 0056944317523920846534847300201112270121      000000000030000  000000013935240000000013935240 0000000000         179CUENTA SIN DISPONIBLE        00                             93170000100009700000000000000000280121      00                                                             *
101771101030005 005694431754655372541069230020111327012179703 000000000060000  000000010223804000000010223804 0000000000         000                             00                             93170000100009800000000000000000280121      00                                                             *
101771101030005 0056944317544764203871786300201114270121      000000000030000  000000022162208000000022162208 0000000000         179CUENTA SIN DISPONIBLE        00                             93170000100009900000000000000000280121      00                                                             *
101771101030005 005694431752005322572309030020111527012178584 000000000030000  000000016530355000000016530355 0000000000         000                             00                             93170000100010000000000000000000280121      00                                                             *
101771101040005 005694431754655340084498650002012127012179620 000000000020000  000000007649652000000007649652 0000000000         000                             00                             93170010100010200000000000000000280121      00                                                             *
101771101040005 005694431755703952495039320002012227012195966 000000000020000  000000002950512000000002950512 0000000000         000                             00                             93170010100010300000000000000000280121      00                                                             *
101771101040005 0056944317554730958184072900020123270121      000000000050000  000000025834469000000025834469 0000000000         179CUENTA SIN DISPONIBLE        00                             93170010100010400000000000000000280121      00                                                             *
101771101040005 005694431751658560849042960002012427012178480 000000000025000  000000020803581000000020803581 0000000000         000                             00                             93170010100010500000000000000000280121      00                                                             *
101771101040005 005694431752005382040218240002012527012178679 000000000030000  000000006025713000000006025713 0000000000         000                             00                             93170010100010600000000000000000280121      00                                                             *
101771101040005 0056944317512332126196505800020126270121      000000000100000  000000005970288000000005970288 0000000000         179CUENTA SIN DISPONIBLE        00                             93170010100010700000000000000000280121      00                                                             *
101771101040005 005694431753665095204248850002012727012179350 000000000080000  000000016865115000000016865115 0000000000         000                             00                             93170010100010800000000000000000280121      00                                                             *
101771101040005 0056944317527572371554567300020128270121      000000000030000  000000012418154000000012418154 0000000000         198AUTORIZ. DENEGADA POR EL EMIS00                             93170010100010900000000000000000280121      00                                                             *
101771101040005 005694431753357127092844700002012927012179264 000000000060000  000000004163207000000004163207 0000000000         000                             00                             93170010100011000000000000000000280121      00                                                             *
101771101040005 005694431754655340900002460020121027012179650 000000000060000  000000007305142000000007305142 0000000000         000                             00                             93170010100011100000000000000000280121      00                                                             *
101771101040005 0056944317557437733873593300201211270121      000000000030000  000000022885593000000022885593 0000000000         151NRO. DE TARJETA INCORRECTO   00                             93170010100011200000000000000000280121      04                                                             *
101771101040005 0056944317516585043125655900201212270121      000000000050000  000000021022526000000021022526 0000000000         179CUENTA SIN DISPONIBLE        00                             93170010100011300000000000000000280121      00                                                             *
101771101040005 005694431753665034997705760020121327012179336 000000000030000  000000026595072000000026595072 0000000000         000                             00                             93170010100011400000000000000000280121      00                                                             *
101771101040005 005694431755919823741245120020121427012180303 000000000020000  000000092142259000000092142259 0000000000         000                             00                             93170010100011500000000000000000280121      00                                                             *
101771101040005 005694431752005354136167900020121527012178638 000000000020000  000000011614739000000011614739 0000000000         000                             00                             93170010100011600000000000000000280121      00                                                             *
101771101040005 005694431752005373038682750020121627012178674 000000000030000  000000010039549000000010039549 0000000000         000                             00                             93170010100011700000000000000000280121      00                                                             *
101771101040005 005694431755919874196110840020121727012180375 000000000100000  000000005702757000000005702757 0000000000         000                             00                             93170010100011800000000000000000280121      00                                                             *
101771101040005 0056944317504639128579005900201218270121      000000000030000  000000006398300000000006398300 0000000000         151NRO. DE TARJETA INCORRECTO   00                             93170010100011900000000000000000280121      00                                                             *
101771101040005 005694431754565253273184020020121927012179547 000000000030000  000000002596312000000002596312 0000000000         000                             00                             93170010100012000000000000000000280121      00                                                             *
101771101040005 005694431753101593952478830020122027012179199 000000000050000  000000000867296000000000867296 0000000000         000                             00                             93170010100012100000000000000000280121      00                                                             *
101771101040005 005694431755364888081276240020122127012180057 000000000050000  000000023871918000000023871918 0000000000         000                             00                             93170010100012200000000000000000280121      00                                                             *
101771101040005 005694431754899890227571760000211127012179785 000000000030000  000000024368840000000024368840 0000000000         000                             00                             93170010100012300000000000000000280121      00                                                             *
101771101040005 005694431755703950189236590000211227012188379 000000000050000  000000014959553000000014959553 0000000000         000                             00                             93170010100012400000000000000000280121      00                                                             *
101771101040005 005694431754916497481970750000211327012179814 000000000030000  000000006366601000000006366601 0000000000         000                             00                             93170010100012500000000000000000280121      00                                                             *
101771101040005 005694431752213538088677040000211427012178774 000000000045000  000000001234567000000001234567 0000000000         000                             00                             93170010100012600000000000000000280121      00                                                             *
101771101040005 005694431752393710581546150000211527012178851 000000000030000  000000015124109000000015124109 0000000000         000                             00                             93170010100012700000000000000000280121      00                                                             *
101771101040005 005694431755364930652260020000211627012179934 000000000045000  000000025328032000000025328032 0000000000         000                             00                             93170010100012800000000000000000280121      00                                                             *
101771101040005 005694431754565282428046960000211727012179556 000000000045000  000000013129572000000013129572 0000000000         000                             00                             93170010100012900000000000000000280121      00                                                             *
101771101040005 0056944317512332126196505800002118270121      000000000100000  000000005970288000000005970288 0000000000         179CUENTA SIN DISPONIBLE        00                             93170010100013000000000000000000280121      00                                                             *
101771101040005 005694431755363855524703680000211927012179966 000000000030000  000000011024495000000011024495 0000000000         000                             00                             93170010100013100000000000000000280121      00                                                             *
101771101040005 005694431754942734951223890002111027012179929 000000000030000  000000029439716000000029439716 0000000000         000                             00                             93170010100013200000000000000000280121      00                                                             *
101771101040005 005694431753783805412880300002111127012181011 000000000060000  000000028008816000000028008816 0000000000         000                             00                             93170010100013300000000000000000280121      00                                                             *
101771101040005 005694431752213543302877260002111227012178748 000000000020000  000000013460172000000013460172 0000000000         000                             00                             93170010100013400000000000000000280121      00                                                             *
9RDEBLIMC900000    00569443172021012814180000132000000004969000                                                                                                                                                                                                                                            *
